S010000041544D65676131362E737265639E
S113000029C0000042C00000F8C000003EC000004B
S11300103CC0000039C3000061C3000036C00000CA
S113002034C0000039C5000030C000002EC00000FC
S11300302CC000002AC0000028C0000026C0000018
S113004024C0000022C0000020C000001EC0000028
S11300501CC0000011241FBECFE5D4E0DEBFCDBF1D
S113006010E0A0E6B0E0ECE0FDE002C005900D92E7
S1130070A636B107D9F721E0A6E6B0E001C01D928B
S1130080A438B207E1F7A8D13FC6BACF839B03C017
S113009085B78B7F02C085B7846085BF8AB78068C7
S11300A08ABF8BB780688BBF80E00895109266008A
S11300B080E0089586B38F7390916200891799F058
S11300C090916B00916090936B008093620090918B
S11300D06700907C909367009091670080958F7380
S11300E0892B8093670080B3807290916100891797
S11300F091F090916B00916090936B0080936100FC
S1130100882321F0809167008F7B03C08091670072
S113011080648093670020916C008EEF820F8230A0
S1130120D8F483B3827090916000891791F0909114
S11301306B00916090936B0080936000882321F0A2
S1130140809167008F7703C08091670080688093F7
S11301506700233009F450D28AE008950F93809108
S11301606C00833011F43DD22CC039D21092660059
S113017000E020E030E046E550E060E085E491E016
S1130180CBD481B3837F81BB82B38C6082BB01E01B
S113019020E030E046E450E060E086E890E0BCD443
S11301A085B7886085BF839B03C085B78B7F02C0FA
S11301B085B7846085BF8AB780688ABF8BB780683B
S11301C08BBF8D98959A8D98959A87B3807C87BBC1
S11301D088B38F6388BB80916C008250823010F4A6
S11301E0A198A99A01E020E030E04AE550E06AE0F5
S11301F084E990E091D40F9108951F920F920FB665
S11302000F9211248F938BB78F778BBF05B602FEA5
S113021003C0829B03C006C0829B04C08091680017
S11302208F5F03C0809168008150809368008F9134
S11302300F900FBE0F901F90189580936500863124
S1130240A9F160F48C3038F48A3080F5882399F071
S11302508130A9F02DC0843149F12AC0803259F08F
S113026028F4883119F18E3131F022C08436E1F05E
S11302708536E1F01DC0AA98AB98AC9A12C0FB0178
S1130280868185FF03C0AA98AB9A02C0AB98AA9A4C
S1130290AC9880916C00833021F4809163008823B2
S11302A029F01092640007C084E003C081E001C01B
S11302B08AE080936400609164008DE890E04FC40C
S11302C01F93CF93DF93CDB7DEB760970FB6F89443
S11302D0DEBF0FBECDBF80916500843101F148F4CB
S11302E0813079F008F459C08A50823008F055C042
S11302F016C08831A1F08E3141F1863109F04DC02C
S11303000EC0E09169008EE0E802F0011124E45A85
S1130310FE4F4581628180EAC9D48AEF41C0609171
S113032069001EE06103B0011124645A7E4F84E128
S113033084DF209169002103F0011124E45AFE4F67
S1130340448161858FEBB2D424C08FEE89832EE083
S11303502A83309169003203F0011124E45AFE4FDC
S113036082818B8383818C8384818D8385818E8339
S113037086818F83878188878085898781858A871D
S113038082858B8783858C8784858D87CE010196B2
S11303905ED4833021F484E103C080E001C083E0B3
S11303A060960FB6F894DEBF0FBECDBFDF91CF913C
S11303B01F910895FC01448161858FEB77D48330CC
S11303C011F063E001C064E18FE790E0C8C3482FF7
S11303D04F776AE288EA6AC414BEA598AD9A9D9BD9
S11303E002C083E001C081E080936C0010926A0037
S11303F09FEE9093AB008EE08093AC001092AD0022
S11304001092AE001092AF001092B0001092B100A2
S11304101092B2001092B3001092B4001092B50082
S113042090939B0080939C0010929D0010929E00DC
S113043010929F001092A0001092A1001092A200AE
S11304401092A3001092A4001092A50085E090E001
S113045046D4853551F16BEA70E084E6EEDE60E067
S113046083E090E044D460E082E090E040D460E037
S113047084E090E03CD461E087E090E038D466E02A
S113048088E090E034D466E089E090E030D464E021
S11304908AE090E02CD460E18BE090E028D4609175
S11304A06C0086E090E023D440C087E090E017D44D
S11304B08130A1F488E090E012D4863079F489E0A8
S11304C090E00DD4863051F48AE090E008D4843072
S11304D029F48BE090E003D48031A1F061E087E05F
S11304E090E005D466E088E090E001D466E089E01D
S11304F090E0FDD364E08AE090E0F9D360E18BE022
S113050090E0F5D36BEA70E080E097DE83E090E062
S1130510E6D38093AF0082E090E0E1D38093B4000F
S113052084E090E0DCD38093AE0081E090E0D7D308
S11305308093B60080E090E0D2D38093B70089EB3B
S113054090E080D30BDEDBD200E020E030E040E638
S113055051E060E08FE790E0DFD27894809165000D
S1130560843668F58091AF006BEA70E0811104C0B5
S11305708091B400882311F084E101C080E25DDE43
S1130580459902C0FAD2FCCFC2E38AE090E0EAD2F5
S1130590F4D2C150D1F78091AF00882311F090E0DC
S11305A0E1D28091B400882311F090E0DBD28091F5
S11305B06500843131F48BEA90E0FCDE02C080E017
S11305C006DFA49AA39AD09AD19A9899D89A989B1C
S11305D0D898CB99D99ACB99F8CFD998F6CF16B8A1
S11305E0089580E487B986EC86B93699FECF85B143
S11305F010927300369A0895369945C084B195B126
S11306009093720080937100369A2091710030911A
S1130610720080916F0090917000821B930B97FF82
S113062003C0919581959109039724F0309370004C
S113063020936F0020916F003091700083E0369515
S113064027958A95E1F7822F222329F081E0820FF2
S11306508F3708F08EE790916E00992319F091502E
S113066090936E0090916E00911109C090916D006D
S1130670891729F080936D008AE080936E00809141
S11306806D008093730008951F920F920FB60F921E
S113069011248F939F9389B78F7D89BF86B597B5B2
S11306A089569D4F90937D0180937C0180917C01BC
S11306B090917D019BBD8ABD88B7806188BF89B751
S11306C0806189BF84E080938001109281019F91B1
S11306D08F910F900FBE0F901F9018951F920F923D
S11306E00FB60F9211240F931F932F933F934F93A1
S11306F05F936F937F938F939F93AF93BF93CF93A6
S1130700DF93EF93FF9380917C0190917D01865458
S11307109E4F90937D0180937C0180917C01909108
S11307207D019BBD8ABD809181018F5F8093810192
S1130730809180018430C1F580918101893068F411
S113074080917B01869580937B01459BDBC08091E2
S11307507B01806880937B01D5C088B7806288BFA5
S113076089B7806289BF80917E0190917F0145990C
S113077007C0FC01E957FF4F80818F5F80830FC062
S113078040917B01FC01E058FF4F308121E0230FB1
S11307902083DC01A30FB11D4C9327FD108210921E
S11307A0810181E08093800180918001833009F090
S11307B075C082B398B192959695977082958F7013
S11307C0892780FD04C01092810182E065C0809178
S11307D08101893068F480917B0180FF02C0949884
S11307E001C0949A80917B01869580937B0156C0C9
S11307F080918101893011F4949850C080917901DD
S11308008F5F8093790190917A018917E8F41092AF
S11308108101E0918201F091830180917901E80FD7
S1130820F11D808180937B01949A8CB59DB5885A83
S11308309E4F90937D0180937C0180917C019091E7
S11308407D019BBD8ABD2AC081E080937801C0915F
S11308508201D091830100917E0110917F01CE012C
S1130860E4D120E030E0F801E058FF4F281788F485
S1130870DE01A20FB31F5C91408191E0940F90833D
S1130880D801A40FB11D5C9397FD10822F5F3F4FD9
S1130890EDCF1092810181E08093800180918001ED
S11308A08230C9F480918101811102C0949A13C0ED
S11308B0809181018F3078F094981092810181E0C9
S11308C080938001E0917E01F0917F01E557FF4F15
S11308D080818F5F808380918001813099F4809141
S11308E08101811106C088B7806288BF89B78062A0
S11308F008C080918101883328F01092800189B763
S11309008F7E89BFFF91EF91DF91CF91BF91AF911E
S11309109F918F917F916F915F914F913F912F9113
S11309201F910F910F900FBE0F901F9018959093E9
S11309307F0180937E0194988C9A87E188B9109204
S1130940800188B7806288BF89B7806289BF8EB50D
S1130950887F81608EBD08950F931F93CF93DF939B
S11309601F92CDB7DEB78C0169835FD180937A0182
S113097080917A018150109279019FEF69812091D1
S11309807901281768F420917901F801E20FF11D2B
S113099020819227209179012F5F20937901EFCF55
S11309A0F801E80FF11D9083F89480918001813063
S11309B061F480918101693308F068E3861728F0B7
S11309C01092800189B78F7E89BF789480918001CD
S11309D0813039F490918101943108F057C080E05E
S11309E055C08091800181114EC0F89489B78F7DE4
S11309F089BF08B605FE05C089B7806289BF7894AF
S1130A0042C0949A8CB59DB5885A9E4F90937D01AF
S1130A1080937C0180917C0190917D019BBD8ABD76
S1130A2078941093830100938201109279011092BB
S1130A307801F801808180937B0183E080938001B9
S1130A401092810188B7806188BF89B7806189BFAE
S1130A50809180018330E1F380917801882369F0EB
S1130A60E0917E01F0917F01E857FF4F80819181F1
S1130A7001969183808383E009C080918001823054
S1130A8021F085E003C082E001C084E00F90DF9193
S1130A90CF911F910F9108951F920F920FB60F924D
S1130AA011248F939F9384EE82BF809176008F5F91
S1130AB080937600809178008F5F843618F4809359
S1130AC0780007C010927800809177008F5F809340
S1130AD077008091740090917500892B49F0809182
S1130AE07400909175000197909375008093740041
S1130AF09F918F910F900FBE0F901F90189584EEC9
S1130B0082BF88B7816088BF89B7816089BF83B796
S1130B10887F846083BF08950F93FC018FB7F89496
S1130B20002359F0A0917900B0917A00B683A5838F
S1130B30F0937A00E09379000AC0A0917B00B09111
S1130B407C00B683A583F0937C00E0937B006083F4
S1130B5054834383328321838FBF0F910895FC0113
S1130B60608308959093750080937400809174005D
S1130B7090917500892BD1F708950F931F93CF930C
S1130B80DF938FB7F894009176001092760010915D
S1130B907700109277008FBF011103C0111121C09B
S1130BA03FC08091790090917A00892BB9F3C0916C
S1130BB07900D0917A00209789F08881882351F0B8
S1130BC081508883811106C0EB81FC8189819A81DF
S1130BD0099588830D80DE81C02DEDCF015039F752
S1130BE0DDCF80917B0090917C00892BC9F0C0916E
S1130BF07B00D0917C00209789F08881882351F074
S1130C0081508883811106C0EB81FC8189819A819E
S1130C10099588830D80DE81C02DEDCF115039F701
S1130C20DF91CF911F910F910895FC01808180760F
S1130C30803611F4818108958081807682958F7049
S1130C408E5F089590937E0080937D0070CEEF9226
S1130C50FF921F93CF93DF937C0119E1CEE2D1E0A1
S1130C606C2FC70179DE8330D1F0813011F4D0E0EC
S1130C70F7CF8230A8F3823011F4D111F0CFCB3109
S1130C8008F0C150115059F7E0917D00F0917E00B9
S1130C90E657FF4F80818F5F808386E001C083E049
S1130CA0DF91CF911F91FF90EF900895CF93DF9341
S1130CB0CDB7DEB760970FB6F894DEBF0FBECDBFD9
S1130CC089836A834B83CE010196C1DF60960FB698
S1130CD0F894DEBF0FBECDBFDF91CF910895E199A7
S1130CE0FECF9FBB8EBBE09A99278DB30895262F24
S1130CF0E199FECF9FBB8EBB2DBB0FB6F894E29A51
S10F0D00E19A0FBE01960895F894FFCF0D
S1090D0C01010101016474
S9030000FC
