S010000041544D65676131362E737265639E
S1130000ADC00000C7C000009AC10000C3C000001A
S1130010C1C000000C9450080C947A08BBC00000C6
S1130020B9C000000C94680AB5C00000B3C0000059
S1130030B1C00000AFC00000ADC00000ABC0000004
S1130040A9C00000A7C00000A5C00000A3C0000014
S1130050A1C00000D701DD01020202020202020275
S11300600202020202020202F601F6010202020286
S1130070020202020202020202020202F601020269
S1130080F6010202F6010202020202020202020266
S1130090D7010202D7010202020202020202020294
S11300A0020202020202020202020202020202022C
S11300B0020202020202020202020202020202021C
S11300C0020202020202020202020202020202020C
S11300D002020202020202020202020202020202FC
S11300E002020202020202020202020202020202EC
S11300F002020202020202020202020202020202DC
S113010002020202020202020202020202020202CB
S1130110020202020202020202020202FA01FE01C9
S113012024027A027A027A027A027A027A027A0241
S11301307A02330233027A027A027A027A027A0269
S11301407A027A027A0233027A0233027A023302A0
S11301507A027A027A027A027A024E0211241FBECD
S1130160CFE5D4E0DEBFCDBF10E0A0E6B0E0EEE91D
S1130170F9E102C005900D92AE38B107D9F721E03C
S1130180AEE8B0E001C01D92A339B207E1F72ED664
S11301900C94CD0C35CF839B04C085B78B7F85BF72
S11301A003C085B7846085BF8AB780688ABF8BB770
S11301B080688BBF80E0089510928F0080E00895DE
S11301C086B38F7390916400891799F0909196008B
S11301D09160909396008093640090919200907C3B
S11301E0909392009091920080958F73892B8093C5
S11301F0920080B38072909163008917A1F090916E
S1130200960091609093960080936300882331F068
S1130210809192008F7B8093920005C08091920020
S1130220806480939200809197009EEF980F9230A3
S1130230D0F493B39270209162009217A1F02091B0
S1130240960021602093960090936200992331F0E8
S1130250909192009F779093920005C090919200A4
S1130260906890939200833009F4D1D68AE008957F
S113027021E220939500FC012581E8E6F0E080E08E
S11302809191291728F09081291710F480939500F3
S11302908F5F8132A9F708950F938091970083307F
S11302A011F4AAD62FC0A6D610928F0000E020E049
S11302B030E04CED50E060E082E691E00E94A80A54
S11302C081B3837F81BB82B38C6082BB01E020E079
S11302D030E04BEC50E060E081EB90E00E94A80A33
S11302E085B7886085BF839B04C085B78B7F85BF36
S11302F003C085B7846085BF8AB780688ABF8BB71F
S113030080688BBF8D98959A8D98959A87B3807CD9
S113031087BB88B38F6388BB8091970082508230FB
S113032010F4A198A99A01E020E030E040EE50E0FA
S11303306AE08FEB90E00E94A80A0F9108951F9243
S11303400F920FB60F9211248F938BB78F778BBFB9
S113035005B602FE0EC0829B06C0809193008150B8
S11303608093930013C0809193008F5F80939300D8
S11303700DC0829B06C0809193008F5F8093930091
S113038005C0809193008150809393008F910F90CA
S11303900FBE0F901F9018958093670090E08636EB
S11303A0910580F5FC01E65DFF4F0C94A90CAA9819
S11303B0AB98AC9A1092660028C0FB01868185FF39
S11303C003C0AA98AB9A02C0AB98AA9AAC98809141
S11303D09700833041F480916500811104C081E06D
S11303E08093660012C0109266000FC081E0809373
S11303F066000BC084E08093660007C081E08093B0
S1130400660003C08AE0809366006091660088EB12
S113041090E00C94CB0A0895CF93DF93CDB7DEB769
S113042060970FB6F894DEBF0FBECDBFE0916700B2
S11304308E2F90E0FC013197EE31F10508F05AC09F
S1130440E057FF4F0C94A90CE09194008EE0E80271
S1130450F0011124E758FE4F4581628180EA0E9431
S1130460900C8AEF4AC0609194008EE06802B0015B
S1130470112467587E4F84E18FDFE09194008EE071
S1130480E802F0011124E758FE4F448161858FEBA7
S11304900E94900C833081F584E12FC08FEE898314
S11304A08EE08A83E09194008EE0E802F00111244A
S11304B0E758FE4F82818B8383818C8384818D8373
S11304C085818E8386818F838781888780858987CC
S11304D081858A8782858B8783858C8784858D87B0
S11304E0CE0101960E94560C833011F484E105C0BC
S11304F083E003C080E001C083E060960FB6F89407
S1130500DEBF0FBECDBFDF91CF910895FC014581C1
S1130510628180EA0E94900C6AEF8AEA90E00C946F
S1130520CB0A0895FC014681628181EA0C94900C07
S11305300895FC014285628182EA0C94900C08952E
S11305400F931F93CF93DF93CDB7DEB760970FB6AA
S1130550F894DEBF0FBECDBF8C018FEE89838EE091
S11305608A83F80182818B8383818C8384818D8348
S113057085818E8386818F8387818887808589871B
S113058081858A8782858B8783858C8784858D87FF
S1130590CE0101960E94560C8330A1F063E08AEAF2
S11305A090E0F9D780916700883121F08E3131F0E5
S11305B08B3061F4B80184E1EFDE08C0B80181E05A
S11305C0EBDE04C064E18AEA90E0E5D760960FB6FA
S11305D0F894DEBF0FBECDBFDF91CF911F910F9175
S11305E00895CF93DF93EA01462F682F8AEB0E9488
S11305F0900C833081F063E08AEA90E0CCD780915C
S11306006700863121F4BE0184E1C6DE08C0BE0164
S113061080E2C2DE04C064E18AEA90E0BCD7DF91E4
S1130620CF910895FC01448161858FEB0E94900C69
S1130630833029F063E08AEA90E0ADC7089564E16D
S11306408AEA90E0A8C70895AC01440F452F441FDF
S1130650550B51954F77682F6F778FEA0C94900C58
S11306600895482F4F776AE288EA0C94900C089515
S1130670482F4F776BE288EA0C94900C0895CF933F
S1130680DF93BC0190919700923069F09330A9F008
S11306909130E9F420919000309191002F3733404C
S11306A0B9F090E015C091E0209190003091910054
S11306B02F3F334069F090E00BC091E0209190000F
S11306C0309191002F3F3C4019F090E001C090E040
S11306D09130A1F4EB0185E090E00E94B80C8535DF
S11306E069F0BE0185E658DE84E690E057D78FE7CF
S11306F0BFDF65E585E090E00E94C00CDF91CF91FB
S113070008951F93CF93DF93BC019091960090FFBF
S113071016C1EB01909196009E7F90939600809174
S11307206700843608F0F7C090918E0090FF04C0F3
S11307302091920020FFFFC096FF09C020919200F3
S113074026FD05C065E082E691E025D7F4C020913E
S11307509200922794F5813009F0EDC080919700C2
S11307609EEF980F923008F0E6C01092930010921A
S11307709500833041F48D81823028F01092650019
S1130780BE0181E009DE81E08D83CE01BFDE809170
S11307909200882334F48E8180628E83AB98AA9A67
S11307A005C08E818F7D8E83AA98AB9ACE01BADE66
S11307B061E08AEA90E0EFD6BEC0813009F08FC0D4
S11307C08091920080FF30C01A858091920090E061
S11307D08F7789309105C1F034F483309105D1F0DD
S11307E00597A9F019C08131910559F0813491051B
S11307F099F480E28B83BE018EE1CEDDCE01A0DED2
S11308000BC081E0182708C082E0182705C084E0E7
S1130810182702C088E018278A85181709F48BC0A6
S11308201A87CE0186DE87C01E818091920090E0F7
S11308308F778830910509F443C044F482309105E0
S113084009F444C0049709F43EC042C080329105C3
S113085089F18034910519F04097D1F52EC010929A
S113086093001092950080919700833049F48D8114
S1130870823030F010926500BE0181E08DDD03C04E
S113088081E080938F008D81823018F081E08D8328
S113089001C01D82CE013ADE809197008130C1F4FF
S11308A015FF04C01F7DAA98AB9A12C01062AB98C2
S11308B0AA9A0EC080E118270BC081E0182708C04F
S11308C082E0182705C084E0182702C088E01827B2
S11308D08E81181781F11E83CE0124DE2CC0803254
S11308E069F4809192008F77813429F5BE018AE002
S11308F053DDAE0160E080E074DE1DC080919200A3
S113090081748134C1F480E28B83BE018EE144DDC5
S1130910CE0116DE10C0209192008091900090913B
S11309209100822B9093910080939000809192008B
S11309309FDECE01A4DE8091920080938E00DF9131
S1130940CF911F910895CF93DF939C0190919300D1
S1130950992309F46EC0E90165E081EB90E01BD6B0
S113096080916700813009F044C080918F0081112B
S11309705EC0809193008823DCF48091930081957C
S1130980809393002091930080919500022E000C97
S1130990330B90E0821793071CF4109295000FC05C
S11309A09091930080919500891B8093950007C0D6
S11309B09091930080919500890F80939500809188
S11309C09500823218F081E280939500E0919500C1
S11309D0F0E0E859FF4F9D818081981741F1E09143
S11309E09500F0E0E859FF4F80818D83CE018EDDC4
S11309F01EC08436E0F080919300882354F48091E3
S1130A009000909191009160909391008093900058
S1130A1009C0809190009091910092609093910010
S1130A20809390008091930023DECE0128DE109203
S1130A309300DF91CF9108951F93CF93DF93EC013F
S1130A4080916700813009F51091650080916500FF
S1130A50811107C080919E00811103C081E08093C1
S1130A60650080916500882341F080919E009D81FE
S1130A70891719F08D83CE0149DD8091650018171F
S1130A80D9F1BE0181E088DC37C08436A8F18091B9
S1130A909E0081110AC08091900090919100946011
S1130AA090939100809390000DC080919E008E37AA
S1130AB048F08091900090919100986090939100FB
S1130AC08093900080919C0090919D002091600003
S1130AD0309161002817390769F080919C0090914A
S1130AE09D00909361008093600080919C009091A0
S1130AF09D00AADDCE01C3DDDF91CF911F91089542
S1130B00FC01809167008A3081F4A091C600B09105
S1130B10C70013968C911397838314968C91149722
S1130B20848319968C9181870AC0A091C600B091E4
S1130B30C70013968C91887F9381892B8383A0911E
S1130B40C600B091C70012968C911297828380914F
S1130B5097009EEF980F923008F516969C91169781
S1130B609F7D968320919200222314F490629683B1
S1130B70268116969C911697922795FF05C081E0D1
S1130B8085831092650011C0833021F480919E000A
S1130B9085830BC015968C91858307C015968C911F
S1130BA01597858316968C918683A091C600B09183
S1130BB0C70017968C911797878318968C9118976E
S1130BC080871A968C918287CF0152CB0895CF9358
S1130BD0DF93EC011C82198660E083E090E0D0D6BC
S1130BE0698582E090E0CCD660E084E090E0C8D6ED
S1130BF0BE0180E2D1DBDF91CF910895CF93DF93E3
S1130C00EC014ED69093C7008093C600009709F478
S1130C10EAC0FC012081223A09F4D6C038F4203A13
S1130C2009F498C0213A09F4A4C0D9C0243B09F4BA
S1130C3063C0273E09F0D3C020916700243191F0AE
S1130C40263109F441C02A3009F0C9C0FC0183816E
S1130C5085FFC5C0CE0154DFBE018BE09DDBCE0114
S1130C606FDCBDC03C81FC0124813213B8C03985DE
S1130C7021853213B4C0238120732033C9F4238522
S1130C803B85321304C04C853485431731F0211160
S1130C900CC0FC018485811108C0CE0131DFBE0186
S1130CA088E17ADBCE014CDC9AC0CE0190DF97C09C
S1130CB0BE0186E171DBE091C600F091C70082813C
S1130CC0AE01682F8EDC8BC03C81FC012481321381
S1130CD086C039852185321382C083818073803335
S1130CE041F4CE010DDFBE0188E156DBCE0128DCE4
S1130CF076C0CE016CDF73C0209167002B3089F081
S1130D0018F42A3021F16BC0283159F02E3109F042
S1130D1066C0FC0181818F3609F061C0CE0157DFC6
S1130D205EC0FC0181818F3609F059C06C8183E07B
S1130D3090E026D6698582E090E022D66B816770C8
S1130D4084E090E01DD6BE0181E026DB48C0CE01E0
S1130D503EDF45C020916700213009F040C0FC010E
S1130D6031812A8132133BC082818D83CE0180DAA6
S1130D7036C020916700213091F5FC0131812A8130
S1130D8032132DC0209197002250223088F42E81F6
S1130D903281422F432745FF09C020722E8382816E
S1130DA08F7D282B2E83CE01BDDB05C03E8303C07F
S1130DB0FC0182818E838E8185FF03C0AA98AB9A41
S1130DC00EC0AB98AA9A0BC020916700213039F469
S1130DD0FC0131812A81321302C082818A871092F8
S1130DE0C7001092C600DF91CF91089514BEA59854
S1130DF0AD9A9D9B04C083E08093970003C081E07B
S1130E008093970010929500E8ECF0E08FEE8083D9
S1130E108EE08183128213821482158216821782D5
S1130E2010861186128685E090E0A2D5853551F1B1
S1130E3068EC70E084E6B0DA60E083E090E0A0D58E
S1130E4060E082E090E09CD560E084E090E098D59A
S1130E5061E087E090E094D566E088E090E090D58A
S1130E6066E089E090E08CD564E08AE090E088D583
S1130E7060E18BE090E084D56091970086E090E09B
S1130E807FD53FC087E090E073D58130A1F488E03E
S1130E9090E06ED5863079F489E090E069D58630AB
S1130EA051F48AE090E064D5843029F48BE090E03A
S1130EB05FD58031A1F061E087E090E061D566E024
S1130EC088E090E05DD566E089E090E059D564E083
S1130ED08AE090E055D560E18BE090E051D568EC74
S1130EE070E080E059DA83E090E042D5C8ECD0E0CD
S1130EF08C8382E090E03CD5898784E090E038D50B
S1130F008B8381E090E034D5C82F08EC10E0F80121
S1130F10838780E090E02CD5F8018487CC2314F0FB
S1130F2088233CF4A39AAB9AA29AAA9AA49AAC9A5C
S1130F30FFCF86ED90E0AED4AFD9FDD200E020E043
S1130F4030E04CE052E060E08AEA90E001D378942B
S1130F5080916700843688F58091CC00811104C0AB
S1130F608091D100882329F068EC70E084E114DAE0
S1130F7004C068EC70E080E20FDA459939C019D3F7
S1130F80459BFDCF35C08AE090E008D312D3C15011
S1130F90D1F78091CC00882311F090E0FFD28091AA
S1130FA0D100882311F090E0F9D280916700843158
S1130FB031F488EC90E036DB02C080E052DB88EC50
S1130FC090E01CDE88EC90E09CDB88EC90E016DE80
S1130FD080919700833021F488EC90E02DDD03C0EC
S1130FE088EC90E0B0DC88EC90E008DEE2D2E7CF59
S1130FF0C2E3C9CF16B8089580E487B986EC86B9F0
S11310003699FECF85B110929E00369A089536998E
S113101046C084B195B190939D0080939C00369A0C
S113102040919C0050919D0080919A0090919B006A
S1131030841B950B9C0122F422273327281B390B90
S11310402330310524F050939B0040939A00209163
S11310509A0030919B0036952795369527953695BD
S11310602795822F222311F081E0820F909199001D
S1131070992329F091509093990091110CC08F37C6
S113108008F08EE790919800981729F080939800C3
S11310908AE0809399008091980080939E0008953F
S11310A01F920F920FB60F9211248F939F9389B7BB
S11310B08F7D89BF86B597B589569D4F90938C01D6
S11310C080938B0180918B0190918C019BBD8ABD93
S11310D088B7806188BF89B7806189BF84E08093C5
S11310E08F01109290019F918F910F900FBE0F90DE
S11310F01F9018951F920F920FB60F9211240F9301
S11311001F932F933F934F935F936F937F938F938B
S11311109F93AF93BF93CF93DF93EF93FF9380910C
S11311208B0190918C0186549E4F90938C018093F7
S11311308B0180918B0190918C019BBD8ABD809124
S113114090018F5F8093900180918F01843009F02A
S11311503FC080919001893068F480918A0186951E
S113116080938A01459BECC080918A0180688093BA
S11311708A01E6C088B7806288BF89B7806289BF68
S113118045990AC0E0918D01F0918E01E957FF4F16
S113119080818F5F808317C040918A0180918D0187
S11311A090918E01FC01E058FF4F308121E0230F24
S11311B02083FC01E30FF11D4083222324F4FC016E
S11311C0E058FF4F10821092900181E080938F01CC
S11311D080918F01833009F07EC092B388B19295DB
S11311E09F70829586958770892780FD06C010922E
S11311F0900182E080938F016EC0809190018930CC
S113120068F480918A0180FF02C0949801C0949A86
S113121080918A01869580938A015DC080919001B6
S1131220893011F4949857C0809188018F5F80931E
S11312308801909189018917E8F410929001E09156
S11312409101F091920180918801E80FF11D808154
S113125080938A01949A8CB59DB5885A9E4F909339
S11312608C0180938B0180918B0190918C019BBDAB
S11312708ABD31C081E080938701C0919101D091F2
S1131280920100918D0110918E01CE01F6D2882336
S1131290E9F08150682F70E06F5F7F4F80E090E04D
S11312A0F801E058FF4FDE01A80FB91F4C913081BF
S11312B021E0230F2083D801A30FB11D4C932223D7
S11312C00CF4108201968617970769F71092900123
S11312D081E080938F0180918F018230C9F48091E5
S11312E09001811102C0949A13C0809190018F30B3
S11312F078F094981092900181E080938F01E091AE
S11313008D01F0918E01E557FF4F80818F5F8083BF
S113131080918F018130A1F480919001811107C0E7
S113132088B7806288BF89B7806289BF09C080910D
S11313309001883328F010928F0189B78F7E89BF7E
S1131340FF91EF91DF91CF91BF91AF919F918F91D9
S11313507F916F915F914F913F912F911F910F91C9
S11313600F900FBE0F901F90189590938E0180934D
S11313708D0194988C9A87E188B910928F0188B76F
S1131380806288BF89B7806289BF8EB5887F81609B
S11313908EBD08951F93CF93DF93EC01162F6DD26A
S11313A080938901209189012150109288018091B4
S11313B08801821790F49FEF80918801FE01E80F65
S11313C0F11D80819827809188018F5F8093880127
S11313D080918801821780F301C09FEFFE01E20F24
S11313E0F11D9083F89480918F01813061F4809194
S11313F09001193308F018E3811728F010928F0137
S113140089B78F7E89BF789480918F01813039F4B8
S113141090919001943108F057C080E055C08091BC
S11314208F0181114EC0F89489B78F7D89BF08B6AA
S113143005FE06C089B7806289BF789482E044C003
S1131440949A8CB59DB5885A9E4F90938C01809345
S11314508B0180918B0190918C019BBD8ABD789406
S1131460D0939201C0939101109288011092870148
S1131470888180938A0183E080938F011092900188
S113148088B7806188BF89B7806189BF80918F01E7
S11314908330E1F380918701882369F0E0918D0125
S11314A0F0918E01E857FF4F8081918101969183DD
S11314B0808383E009C080918F01823021F085E030
S11314C003C082E001C084E0DF91CF911F910895B1
S11314D01F920F920FB60F9211248F939F9384EE55
S11314E082BF8091A1008F5F8093A1008091A300AF
S11314F08F5F843618F48093A30007C01092A30072
S11315008091A2008F5F8093A20080919F009091B0
S1131510A000892B49F080919F009091A000019731
S11315209093A00080939F009F918F910F900FBE86
S11315300F901F90189584EE82BF88B7816088BF92
S113154089B7816089BF83B7887F846083BF08952A
S11315500F93FC018FB7F894002359F0A091A400D5
S1131560B091A500B683A583F093A500E093A400F1
S11315700AC0A091A600B091A700B683A583F093FA
S1131580A700E093A60060835483438332832183BE
S11315908FBF0F910895FC01608308959093A0007C
S11315A080939F0080919F009091A000892BD1F798
S11315B008950F931F93CF93DF938FB7F8940091FF
S11315C0A1001092A1001091A2001092A2008FBF5E
S11315D0002301F18091A4009091A500892BD1F002
S11315E0C091A400D091A500209791F08881882310
S11315F051F081508883811106C0EB81FC8189817F
S11316009A81099588830D80DE81C02D209771F71A
S1131610015031F7112301F18091A6009091A700A8
S1131620892BD1F0C091A600D091A700209791F00A
S11316308881882351F081508883811106C0EB8111
S1131640FC8189819A81099588830D80DE81C02D72
S1131650209771F7115031F7DF91CF911F910F91BE
S113166008952F923F924F925F926F927F928F9242
S11316709F92AF92BF92CF92DF92EF92FF920F931D
S11316801F93CF93DF9300D000D0CDB7DEB75C01BA
S1131690FC01EF57FF4F908131978081981709F42F
S11316A0CCC085010E571F4F650123E8C20ED11C23
S11316B0750134E8E30EF11C350187E8680E711CEE
S11316C06894222427F84F0195012F573F4F3C83FC
S11316D02B833596FA83E983F501E90FF11D3080F8
S11316E03320D4F4F8018081891721F0F30180813B
S11316F08F5F8083F80190832FEFF6012083832D81
S11317008076803609F49FC082958F708E5FF701D2
S11317108083811106C051C0F701808181114DC0C1
S11317203082F8012081F7013081822F90E0830F0D
S1131730911D813891050CF440C0422C421AF89452
S1131740F4014081EB81FC818081841740F4F8012D
S11317508081F42FF81B8F2FF401808304C0842D23
S1131760840FF40180837894EB81FC818081481795
S113177080F4512C50E0B501C501840D951DEFD0C6
S1131780F8018081B501680F711DA201C501E7D080
S113179009C0F8018081481B50E0B501680F711D34
S11317A0C501DDD0EB81FC818081F8019081891B2A
S11317B0EB81FC818083F8011082EB81FC818081C4
S11317C08F5F8083F8019081282F291B88231CF4C4
S11317D0EB81FC811082F7018081281320C0F6017F
S11317E08081381213C09501290F311DE981FA81D6
S11317F080819181019691838083EB81FC8180813A
S1131800F80180832115310551F01AC0F30180815C
S11318108F5F8083EB81FC818081F8018083F601F6
S1131820808138263082EB81FC819081F4018081B3
S1131830981352CF80E090E009C080E090E006C0A9
S1131840822F932F03C0F7011082B7CF0F900F9010
S11318500F900F90DF91CF911F910F91FF90EF9018
S1131860DF90CF90BF90AF909F908F907F906F90BC
S11318705F904F903F902F900895FC019081907657
S1131880903611F4818108958081807682958F70DD
S11318908E5F08959093A9008093A80066CD089563
S11318A08091A8009091A900DCCE0895DF92EF9278
S11318B0FF920F931F93CF93DF938C010F2EF9E1C7
S11318C0EF2EF02DCEE2DD24D394F12C13C0DF2DC6
S11318D06C2FC8015FDD8330D1F08130C1F3C0F3D8
S11318E0823011F4D111F4CFCB3108F0C150EA9415
S11318F0EE2011F0DD2DECCFE091A800F091A900CD
S1131900E657FF4F80818F5F808386E001C083E0CC
S1131910DF91CF911F910F91FF90EF90DF90089589
S1131920CF93DF93CDB7DEB760970FB6F894DEBFE1
S11319300FBECDBF89836A834B83CE010196B6DF88
S113194060960FB6F894DEBF0FBECDBFDF91CF9186
S11319500895EE0FFF1F0590F491E02D0994FB010B
S1131960DC0102C001900D9241505040D8F7089517
S1131970E199FECF9FBB8EBBE09A99278DB3089562
S1131980262FE199FECF9FBB8EBB2DBB0FB6F894DB
S1111990E29AE19A0FBE01960895F894FFCFF3
S113199EFFFF010101010164000305070B0F13177B
S11319AE1B1F23272B2F33373B3F43474B4F535795
S11119BE5B5F63676B6F73777B7F7F7F7F0058
S9030000FC
