:10000000ADC00000C7C00000D5C10000C3C00000E3
:10001000C1C000000C9496080C94C008BBC000003E
:10002000B9C000000C94AE0AB5C00000B3C0000017
:10003000B1C00000AFC00000ADC00000ABC0000008
:10004000A9C00000A7C00000A5C00000A3C0000018
:10005000A1C00000120218023D023D023D023D0215
:100060003D023D023D023D02310231023D023D02B0
:100070003D023D023D023D023D023D0231023D0294
:1000800031023D0231023D023D023D023D023D0290
:1000900012023D0212023D023D023D023D023D02BE
:1000A0003D023D023D023D023D023D023D023D0258
:1000B0003D023D023D023D023D023D023D023D0248
:1000C0003D023D023D023D023D023D023D023D0238
:1000D0003D023D023D023D023D023D023D023D0228
:1000E0003D023D023D023D023D023D023D023D0218
:1000F0003D023D023D023D023D023D023D023D0208
:100100003D023D023D023D023D023D023D023D02F7
:100110003D023D023D023D023D023D0235023902F3
:100120005F029B029B029B029B029B029B029B0223
:100130009B02680268029B029B029B029B029B023D
:100140009B029B029B0268029B0268029B02680260
:100150009B029B029B029B029B02750211241FBE05
:10016000CFE5D4E0DEBFCDBF10E0A0E6B0E0EAE22C
:10017000FAE102C005900D92AE38B107D9F721E03F
:10018000AEE8B0E001C01D92A438B207E1F788D60E
:100190000C94130D35CF839B04C085B78B7F85BF2F
:1001A00003C085B7846085BF8AB780688ABF8BB774
:1001B00080688BBF80E00895809167008130E9F40A
:1001C000809196008330B1F480916500811112C056
:1001D00080919D009091CC00891730F4AA9902C0BB
:1001E000AA9A26C0AA9824C0AB9902C0AB9A20C094
:1001F000AB981EC0109266001BC0843680F0AA9B8C
:1002000004C0AA98AB9AAC9813C0AB9B04C0AA9840
:10021000AB98AC9A0DC0AA9AAB98AC9809C0AB9BAE
:1002200004C0AC9AAA98AB9803C0AC98AA9AAB9AAF
:1002300080916600089510928F0080E0089586B343
:100240008F7390916400891799F090919500916057
:10025000909395008093640090919200907C90938D
:1002600092009091920080958F73892B80939200D9
:1002700080B38072909163008917A1F090919500EE
:1002800091609093950080936300882331F0809172
:1002900092008F7B8093920005C0809192008064D1
:1002A00080939200809196009EEF980F9230D0F448
:1002B00093B39270209162009217A1F02091950063
:1002C00021602093950090936200992331F09091E2
:1002D00092009F779093920005C090919200906851
:1002E00090939200833009F4D8D68AE008950F9352
:1002F00080919600833011F4C5D62FC0C1D61092DC
:100300008F0000E020E030E04BE151E060E081E66A
:1003100091E00E94EE0A81B3837F81BB82B38C603F
:1003200082BB01E020E030E04BEC50E060E080EB8D
:1003300090E00E94EE0A85B7886085BF839B04C069
:1003400085B78B7F85BF03C085B7846085BF8AB7BB
:1003500080688ABF8BB780688BBF8D98959A8D987F
:10036000959A87B3807C87BB88B38F6388BB809165
:1003700096008250823010F4A198A99A01E020E002
:1003800030E04FE151E06AE08EEB90E00E94EE0A2F
:10039000A39AAB98A29AAA98A49AAC9A00E020E0FB
:1003A00030E04CED50E061E087EB90E00E94EE0A17
:1003B0000F9108951F920F920FB60F9211248F93F1
:1003C0008BB78F778BBF05B602FE0EC0829B06C02F
:1003D0008091930081508093930013C0809193008B
:1003E0008F5F809393000DC0829B06C08091930025
:1003F0008F5F8093930005C080919300815080931C
:1004000093008F910F900FBE0F901F9018958093BF
:10041000670090E08636910580F5FC01E65DFF4FB0
:100420000C94EF0CAA98AB98AC9A1092660028C076
:100430008091CD0085FF03C0AA98AB9A02C0AB980B
:10044000AA9AAC9880919600833041F4809165001F
:10045000811104C081E08093660012C01092660092
:100460000FC081E0809366000BC084E0809366003B
:1004700007C081E08093660003C08AE08093660035
:100480006091660087EB90E00C94110B0895CF9378
:10049000DF93CDB7DEB760970FB6F894DEBF0FBE1F
:1004A000CDBFE09167008E2F90E0FC013197EE31D7
:1004B000F10508F040C0E057FF4F0C94EF0CE7EC5B
:1004C000F0E04581628180EA0E94D60C8AEF36C056
:1004D00084E19DDFE7ECF0E0448161858FEB0E94D1
:1004E000D60C833051F584E129C08FEE89838EE0EC
:1004F0008A83E7ECF0E082818B8383818C83848123
:100500008D8385818E8386818F838781888780858F
:10051000898781858A8782858B8783858C87848577
:100520008D87CE0101960E949C0C833011F484E1EA
:1005300005C083E003C080E001C083E060960FB691
:10054000F894DEBF0FBECDBFDF91CF910895FC01BF
:100550004581628180EA0E94D60C6AEF89EA90E0C8
:100560000C94110B0895FC014681628181EA0C9480
:10057000D60C0895FC014285628182EA0C94D60C67
:100580000895CF93DF93CDB7DEB760970FB6F89499
:10059000DEBF0FBECDBFFC018FEE89838EE08A8364
:1005A00082818B8383818C8384818D8385818E83FB
:1005B00086818F83878188878085898781858A87DF
:1005C00082858B8783858C8784858D87CE01019674
:1005D0000E949C0C833099F063E089EA90E00E94CD
:1005E000110B80916700883121F08E3129F08B301A
:1005F00059F484E10CDF08C081E009DF05C064E143
:1006000089EA90E00E94110B60960FB6F894DEBF65
:100610000FBECDBFDF91CF910895462F682F8AEB93
:100620000E94D60C833071F063E089EA90E0F9D73C
:1006300080916700863119F484E1E9CE089580E263
:10064000E6CE089564E189EA90E0EBC70895E7EC0F
:10065000F0E0448161858FEB0E94D60C833029F055
:1006600063E089EA90E0DDC7089564E189EA90E0FB
:10067000D8C70895AC01440F452F441F550B519521
:100680004F77682F6F778FEA0C94D60C0895482F18
:100690004F776AE288EA0C94D60C0895482F4F777A
:1006A0006BE288EA0C94D60C089580919600823013
:1006B00069F08330A9F08130E9F420919000309105
:1006C00091002F373340B9F080E015C081E02091D0
:1006D0009000309191002F3F334069F080E00BC0D3
:1006E00081E020919000309191002F3F3C4019F023
:1006F00080E001C080E0813091F485E090E00E94CC
:10070000FE0C853561F085E682DE84E690E08CD7CC
:100710008FE7C4DF65E585E090E00C94060D089551
:10072000CF938091950080FF28C1809195008E7FA6
:100730008093950080916700843608F00BC19091FA
:100740008E0090FF04C02091920020FF12C196FFFE
:1007500009C02091920026FD05C065E081E691E088
:1007600060D707C1209192009227CCF5813009F023
:1007700000C1809196009EEF980F923008F0F9C06A
:100780001092930010929400833041F48091CC0039
:10079000823020F01092650081E039DE81E08093A4
:1007A000CC0087EC90E0D3DE80919200882344F463
:1007B000E7ECF0E0868180628683AB98AA9A07C056
:1007C000E7ECF0E086818F7D8683AA98AB9A87EC70
:1007D00090E0C9DE61E089EA90E023D7CAC08130A9
:1007E00009F09DC08091920080FF35C0C091D1007A
:1007F0008091920090E08F7789309105C9F034F4B0
:1008000083309105D9F00597B1F01AC08131910577
:1008100061F081349105A1F480E28093CA008EE1F9
:10082000F6DD87EC90E0ADDE0BC081E0C82708C0A4
:1008300082E0C82705C084E0C82702C088E0C82736
:100840008091D100C81709F494C0C093D10087ECFF
:1008500090E090DE8EC0C091CD008091920090E03B
:100860008F778830910509F448C044F482309105AF
:1008700009F449C0049709F443C047C08032910588
:10088000B1F18034910521F0409709F03EC032C0AB
:10089000109293001092940080919600833049F456
:1008A0008091CC00823028F01092650081E0AFDDAD
:1008B00003C081E080938F008091CC00823020F0D3
:1008C00081E08093CC0002C01092CC0087EC90E0D5
:1008D0003EDE809196008130C1F4C5FF04C0CF7D1B
:1008E000AA98AB9A12C0C062AB98AA9A0EC080E1D7
:1008F000C8270BC081E0C82708C082E0C82705C010
:1009000084E0C82702C088E0C8278091CD00C817BE
:1009100081F1C093CD0087EC90E025DE2AC08032C3
:1009200059F4809192008F77813419F58AE06FDD58
:1009300060E080E072DE1DC080919200817481349D
:10094000C1F480E28093CA008EE161DD87EC90E023
:1009500018DE0FC02091920080919000909191003C
:10096000822B90939100809390008091920096DE6C
:100970009CDE8091920080938E00CF9108958091AB
:100980009300882309F46FC065E080EB90E049D6BE
:1009900080916700813009F047C080918F008111FC
:1009A00060C0809193008823DCF48091930081954E
:1009B000809393002091930080919400022E000C6C
:1009C000330B90E0821793071CF4109294000FC031
:1009D0009091930080919400891B8093940007C0AC
:1009E0009091930080919400890F8093940080915E
:1009F0009400823218F081E280939400E091940098
:100A0000F0E0E859FF4F9091CC008081981749F1B0
:100A1000E0919400F0E0E859FF4F80818093CC0092
:100A200087EC90E094DD1DC08436D8F0809193006F
:100A3000882354F48091900090919100916090935C
:100A400091008093900009C0809190009091910056
:100A500092609093910080939000809193001EDEAD
:100A600024DE109293000895CF9380916700813027
:100A700019F5C091650080916500811107C08091D2
:100A80009D00811103C081E0809365008091650025
:100A9000882359F080919D009091CC00891729F00E
:100AA0008093CC0087EC90E052DD80916500C81700
:100AB000C9F181E0ACDC36C08436A0F180919D00A4
:100AC00081110AC080919000909191009460909360
:100AD0009100809390000DC080919D008E3748F06A
:100AE00080919000909191009860909391008093F4
:100AF000900080919B0090919C002091600030912B
:100B000061002817390769F080919B0090919C0043
:100B1000909361008093600080919B0090919C0075
:100B2000A9DDC3DDCF910895809167008A3091F4EB
:100B3000A091C500B091C60013968C911397E7EC75
:100B4000F0E0838314968C911497848319968C918A
:100B500081870CC0E7ECF0E0A091C500B091C60021
:100B600013968C91887F9381892B8383E091C500B4
:100B7000F091C60082818093C900809196009EEF1B
:100B8000980F923010F596819F7D9093CD00209123
:100B9000920022231CF490629093CD002091CD000E
:100BA0009681922795FF06C081E08093CC00109239
:100BB000650014C0833029F480919D008093CC009F
:100BC0000DC085818093CC0009C08581A7ECB0E081
:100BD00015968C931597868116968C93A091C500D7
:100BE000B091C60017968C911797E7ECF0E08783D9
:100BF00018968C91189780871A968C91828781E23B
:100C0000809394002581E8E6F0E080E09191291737
:100C100028F09081291710F4809394008F5F81321F
:100C2000A9F70895CF93DF93C7ECD0E01C82198613
:100C300060E083E090E0EAD6698582E090E0E6D665
:100C400060E084E090E0E2D680E2E1DBDF91CF91EA
:100C50000895CF93DF936AD69093C6008093C50022
:100C6000009709F41AC1DC012C91223A09F401C160
:100C700038F4203A09F4A5C0213A09F4C2C009C1E8
:100C8000243B09F470C0273E09F003C1209167009E
:100C9000243189F0263109F449C02A3009F0F9C01D
:100CA000FC01838185FFF5C03FDF8BE0B0DB87EC83
:100CB00090E067DCEEC03091CB00DC0114962C9103
:100CC00014973213E6C03091D00019962C911997E1
:100CD0003213DFC013962C91139720732033E1F465
:100CE0001B962C911B973091D200321306C0409175
:100CF000D3001C963C91431731F021110BC0FC012D
:100D00008485811107C010DF88E181DB87EC90E0EA
:100D100038DCBFC087DFBDC086E179DBE091C5006C
:100D2000F091C6008281682F78DCB3C03091CB008F
:100D3000DC0114962C9114973213ABC03091D00083
:100D400019962C9119973213A4C013968C91807325
:100D5000803339F4E9DE88E15ADB87EC90E011DC7E
:100D600098C060DF96C0209167002B3081F018F4A6
:100D70002A3029F18EC0283151F02E3109F089C076
:100D8000FC0181818F3609F084C04CDF82C0DC0118
:100D900011968C918F3609F07CC0C7ECD0E06C8145
:100DA00083E090E033D6698582E090E02FD66B81B6
:100DB000677084E090E02AD681E029DB6AC032DFE8
:100DC00068C020916700213009F063C0FC013181C7
:100DD0002091C90032135DC022812093CC0081E2B2
:100DE00080939400E8E6F0E080E09191291728F0E4
:100DF0009081291710F4809394008F5F8132A9F7B6
:100E000048C020916700213009F043C0DC011196F1
:100E10003C9111972091C90032133BC0209196005C
:100E200022502230C0F42091CD0012963C911297AE
:100E3000422F432745FF0CC02072E7ECF0E02683E9
:100E400012968C918F7D282B2683CF018CDB07C0D7
:100E50003093CD0004C0FC0182818093CD0080914D
:100E6000CD0085FF03C0AA98AB9A13C0AB98AA9A8D
:100E700010C020916700213061F4DC0111963C9193
:100E800011972091C900321304C012968C9180935F
:100E9000D1001092C6001092C500DF91CF91089545
:100EA00014BEA598AD9A9D9B04C083E080939600E4
:100EB00003C081E08093960010929400E7ECF0E08C
:100EC0008FEE80838EE081831282138214821582DA
:100ED0001682178210861186128685E090E08ED5E4
:100EE000853541F184E693DA60E083E090E08ED5C9
:100EF00060E082E090E08AD560E084E090E086D512
:100F000061E087E090E082D566E088E090E07ED501
:100F100066E089E090E07AD564E08AE090E076D5FA
:100F200060E18BE090E072D56091960086E090E001
:100F30006DD53DC087E090E061D58130A1F488E0B7
:100F400090E05CD5863079F489E090E057D5863022
:100F500051F48AE090E052D5843029F48BE090E09F
:100F60004DD58031A1F061E087E090E04FD566E09B
:100F700088E090E04BD566E089E090E047D564E0FA
:100F80008AE090E043D560E18BE090E03FD580E0DF
:100F90003EDA83E090E032D5C7ECD0E08C8382E08B
:100FA00090E02CD5898784E090E028D58B8381E080
:100FB00090E024D5C82F07EC10E0F801838780E08B
:100FC00090E01CD5F8018487CC2314F088233CF4EE
:100FD000A39AAB9AA29AAA9AA49AAC9AFFCF85ED4B
:100FE00090E09ED484D9EDD200E020E030E047E4E8
:100FF00052E060E089EA90E0F1D278948091670055
:10100000843668F58091CB00811104C08091D000B6
:10101000882319F084E1FBD902C080E2F8D9459910
:101020002DC00DD3459BFDCF29C08AE090E0FCD2B6
:1010300006D3C150D1F78091CB00882311F090E006
:10104000F3D28091D000882311F090E0EDD280910E
:101050006700843131F487EC90E0F9DA02C080E077
:1010600016DBF7DD5DDBF5DD80919600833011F452
:10107000FBDC01C084DCEDDDE2D2F3CFC2E3D5CFEF
:1010800016B8089580E487B986EC86B93699FECF04
:1010900085B110929D00369A0895369946C084B164
:1010A00095B190939C0080939B00369A40919B0051
:1010B00050919C008091990090919A00841B950B0F
:1010C0009C0122F422273327281B390B23303105BA
:1010D00024F050939A004093990020919900309108
:1010E0009A00369527953695279536952795822F20
:1010F000222311F081E0820F90919800992329F02A
:1011000091509093980091110CC08F3708F08EE7A2
:1011100090919700981729F0809397008AE0809328
:1011200098008091970080939D0008951F920F92E0
:101130000FB60F9211248F939F9389B78F7D89BF2C
:1011400086B597B589569D4F90937D0180937C011C
:1011500080917C0190917D019BBD8ABD88B78061A3
:1011600088BF89B7806189BF84E080938001109235
:1011700081019F918F910F900FBE0F901F90189536
:101180001F920F920FB60F9211240F931F932F935C
:101190003F934F935F936F937F938F939F93AF93FF
:1011A000BF93CF93DF93EF93FF9380917C01909156
:1011B0007D0186549E4F90937D0180937C018091A8
:1011C0007C0190917D019BBD8ABD809181018F5FE3
:1011D0008093810180918001843009F03FC080912B
:1011E0008101893068F480917B01869580937B0131
:1011F000459BECC080917B01806880937B01E6C0B9
:1012000088B7806288BF89B7806289BF45990AC064
:10121000E0917E01F0917F01E957FF4F80818F5F60
:10122000808317C040917B0180917E0190917F0166
:10123000FC01E058FF4F308121E0230F2083FC01A7
:10124000E30FF11D4083222324F4FC01E058FF4FFB
:1012500010821092810181E0809380018091800151
:10126000833009F07EC092B388B192959F708295C9
:1012700086958770892780FD06C01092810182E0E3
:10128000809380016EC080918101893068F48091E3
:101290007B0180FF02C0949801C0949A80917B01E9
:1012A000869580937B015DC080918101893011F426
:1012B000949857C0809179018F5F809379019091C4
:1012C0007A018917E8F410928101E0918201F0918E
:1012D000830180917901E80FF11D808180937B016A
:1012E000949A8CB59DB5885A9E4F90937D018093BA
:1012F0007C0180917C0190917D019BBD8ABD31C0B4
:1013000081E080937801C0918201D09183010091A6
:101310007E0110917F01CE01F6D28823E9F0815041
:10132000682F70E06F5F7F4F80E090E0F801E05839
:10133000FF4FDE01A80FB91F4C91308121E0230F30
:101340002083D801A30FB11D4C9322230CF41082EB
:1013500001968617970769F71092810181E08093C3
:101360008001809180018230C9F4809181018111D6
:1013700002C0949A13C0809181018F3078F09498C4
:101380001092810181E080938001E0917E01F091D3
:101390007F01E557FF4F80818F5F808380918001BF
:1013A0008130A1F480918101811107C088B78062EA
:1013B00088BF89B7806289BF09C080918101883365
:1013C00028F01092800189B78F7E89BFFF91EF913D
:1013D000DF91CF91BF91AF919F918F917F916F914D
:1013E0005F914F913F912F911F910F910F900FBEE1
:1013F0000F901F90189590937F0180937E01949891
:101400008C9A87E188B91092800188B7806288BF82
:1014100089B7806289BF8EB5887F81608EBD08954F
:101420001F93CF93DF93EC01162F6DD280937A0137
:1014300020917A01215010927901809179018217CF
:1014400090F49FEF80917901FE01E80FF11D8081FA
:101450009827809179018F5F80937901809179013C
:10146000821780F301C09FEFFE01E20FF11D908310
:10147000F89480918001813061F480918101193369
:1014800008F018E3811728F01092800189B78F7E49
:1014900089BF789480918001813039F490918101E5
:1014A000943108F057C080E055C0809180018111CF
:1014B0004EC0F89489B78F7D89BF08B605FE06C077
:1014C00089B7806289BF789482E044C0949A8CB5D1
:1014D0009DB5885A9E4F90937D0180937C018091A9
:1014E0007C0190917D019BBD8ABD7894D09383014E
:1014F000C0938201109279011092780188818093C3
:101500007B0183E0809380011092810188B7806124
:1015100088BF89B7806189BF809180018330E1F302
:1015200080917801882369F0E0917E01F0917F013C
:10153000E857FF4F8081918101969183808383E0FA
:1015400009C080918001823021F085E003C082E0F3
:1015500001C084E0DF91CF911F9108951F920F92F7
:101560000FB60F9211248F939F9384EE82BF8091C8
:10157000A0008F5F8093A0008091A2008F5F8436CF
:1015800018F48093A20007C01092A2008091A100DD
:101590008F5F8093A10080919E0090919F00892B86
:1015A00049F080919E0090919F00019790939F0039
:1015B00080939E009F918F910F900FBE0F901F9070
:1015C000189584EE82BF88B7816088BF89B7816033
:1015D00089BF83B7887F846083BF08950F93FC0120
:1015E0008FB7F894002359F0A091A300B091A40004
:1015F000B683A583F093A400E093A3000AC0A09152
:10160000A500B091A600B683A583F093A600E09351
:10161000A500608354834383328321838FBF0F915E
:101620000895FC016083089590939F0080939E002D
:1016300080919E0090919F00892BD1F708950F9380
:101640001F93CF93DF938FB7F8940091A00010926F
:10165000A0001091A1001092A1008FBF002301F102
:101660008091A3009091A400892BD1F0C091A30098
:10167000D091A400209791F08881882351F0815067
:101680008883811106C0EB81FC8189819A8109954B
:1016900088830D80DE81C02D209771F7015031F7CE
:1016A000112301F18091A5009091A600892BD1F022
:1016B000C091A500D091A600209791F08881882341
:1016C00051F081508883811106C0EB81FC818981B2
:1016D0009A81099588830D80DE81C02D209771F74E
:1016E000115031F7DF91CF911F910F9108952F92F3
:1016F0003F924F925F926F927F928F929F92AF92A2
:10170000BF92CF92DF92EF92FF920F931F93CF93EE
:10171000DF9300D000D0CDB7DEB75C01FC01EF57FE
:10172000FF4F908131978081981709F4CCC08501D3
:101730000E571F4F650123E8C20ED11C750134E816
:10174000E30EF11C350187E8680E711C68942224B1
:1017500027F84F0195012F573F4F3C832B83359638
:10176000FA83E983F501E90FF11D30803320D4F4C9
:10177000F8018081891721F0F30180818F5F8083D8
:10178000F80190832FEFF6012083832D8076803639
:1017900009F49FC082958F708E5FF701808381115D
:1017A00006C051C0F701808181114DC03082F8011F
:1017B0002081F7013081822F90E0830F911D8138C5
:1017C00091050CF440C0422C421AF894F401408177
:1017D000EB81FC818081841740F4F8018081F42F33
:1017E000F81B8F2FF401808304C0842D840FF40133
:1017F00080837894EB81FC818081481780F4512CA0
:1018000050E0B501C501840D951DEFD0F801808130
:10181000B501680F711DA201C501E7D009C0F8012B
:101820008081481B50E0B501680F711DC501DDD0F6
:10183000EB81FC818081F8019081891BEB81FC8127
:101840008083F8011082EB81FC8180818F5F80832F
:10185000F8019081282F291B88231CF4EB81FC813F
:101860001082F7018081281320C0F6018081381290
:1018700013C09501290F311DE981FA818081918181
:10188000019691838083EB81FC818081F8018083C4
:101890002115310551F01AC0F30180818F5F8083DB
:1018A000EB81FC818081F8018083F60180813826FC
:1018B0003082EB81FC819081F4018081981352CFBA
:1018C00080E090E009C080E090E006C0822F932F76
:1018D00003C0F7011082B7CF0F900F900F900F90B9
:1018E000DF91CF911F910F91FF90EF90DF90CF90FC
:1018F000BF90AF909F908F907F906F905F904F9030
:101900003F902F900895FC0190819076903611F4CD
:10191000818108958081807682958F708E5F089591
:101920009093A8008093A70066CD08958091A700AA
:101930009091A800DCCE0895DF92EF92FF920F9372
:101940001F93CF93DF938C010F2EF9E1EF2EF02D33
:10195000CEE2DD24D394F12C13C0DF2D6C2FC8010F
:101960005FDD8330D1F08130C1F3C0F3823011F4F8
:10197000D111F4CFCB3108F0C150EA94EE2011F030
:10198000DD2DECCFE091A700F091A800E657FF4FC6
:1019900080818F5F808386E001C083E0DF91CF91FB
:1019A0001F910F91FF90EF90DF900895CF93DF93F9
:1019B000CDB7DEB760970FB6F894DEBF0FBECDBFD0
:1019C00089836A834B83CE010196B6DF60960FB69A
:1019D000F894DEBF0FBECDBFDF91CF910895EE0F1B
:1019E000FF1F0590F491E02D0994FB01DC0102C07A
:1019F00001900D9241505040D8F70895E199FECFE3
:101A00009FBB8EBBE09A99278DB30895262FE1994D
:101A1000FECF9FBB8EBB2DBB0FB6F894E29AE19A26
:0A1A20000FBE01960895F894FFCF61
:101A2A00FFFF010101010164000305070B0F1317F2
:101A3A001B1F23272B2F33373B3F43474B4F53570C
:0E1A4A005B5F63676B6F73777B7F7F7F7F00CF
:00000001FF
